{
  "contractName": "Ballot3",
  "abi": [
    {
      "inputs": [
        {
          "internalType": "uint8",
          "name": "_numProposals",
          "type": "uint8"
        }
      ],
      "payable": false,
      "stateMutability": "nonpayable",
      "type": "constructor"
    },
    {
      "constant": true,
      "inputs": [],
      "name": "stage",
      "outputs": [
        {
          "internalType": "enum Ballot3.Stage",
          "name": "",
          "type": "uint8"
        }
      ],
      "payable": false,
      "stateMutability": "view",
      "type": "function"
    },
    {
      "constant": false,
      "inputs": [
        {
          "internalType": "address",
          "name": "toVoter",
          "type": "address"
        }
      ],
      "name": "register",
      "outputs": [],
      "payable": false,
      "stateMutability": "nonpayable",
      "type": "function"
    },
    {
      "constant": false,
      "inputs": [
        {
          "internalType": "uint8",
          "name": "toProposal",
          "type": "uint8"
        }
      ],
      "name": "vote",
      "outputs": [],
      "payable": false,
      "stateMutability": "nonpayable",
      "type": "function"
    },
    {
      "constant": true,
      "inputs": [],
      "name": "winningProposal",
      "outputs": [
        {
          "internalType": "uint8",
          "name": "_winningProposal",
          "type": "uint8"
        }
      ],
      "payable": false,
      "stateMutability": "view",
      "type": "function"
    }
  ],
  "bytecode": "0x608060405260008060006101000a81548160ff0219169083600381111561002257fe5b021790555034801561003357600080fd5b506040516106c43803806106c48339818101604052602081101561005657600080fd5b810190808051906020019092919050505033600060016101000a81548173ffffffffffffffffffffffffffffffffffffffff021916908373ffffffffffffffffffffffffffffffffffffffff1602179055506002600160008060019054906101000a900473ffffffffffffffffffffffffffffffffffffffff1673ffffffffffffffffffffffffffffffffffffffff1673ffffffffffffffffffffffffffffffffffffffff168152602001908152602001600020600001819055508060ff166002816101229190610153565b5060016000806101000a81548160ff0219169083600381111561014157fe5b021790555042600381905550506101a6565b81548183558181111561017a57818360005260206000209182019101610179919061017f565b5b505050565b6101a391905b8082111561019f5760008082016000905550600101610185565b5090565b90565b61050f806101b56000396000f3fe608060405234801561001057600080fd5b506004361061004c5760003560e01c80634420e48614610051578063609ff1bd14610095578063b3f98adc146100b9578063c040e6b8146100ea575b600080fd5b6100936004803603602081101561006757600080fd5b81019080803573ffffffffffffffffffffffffffffffffffffffff169060200190929190505050610116565b005b61009d6102d8565b604051808260ff1660ff16815260200191505060405180910390f35b6100e8600480360360208110156100cf57600080fd5b81019080803560ff169060200190929190505050610385565b005b6100f26104c8565b6040518082600381111561010257fe5b60ff16815260200191505060405180910390f35b6001600381111561012357fe5b6000809054906101000a900460ff16600381111561013d57fe5b14610147576102d5565b600060019054906101000a900473ffffffffffffffffffffffffffffffffffffffff1673ffffffffffffffffffffffffffffffffffffffff163373ffffffffffffffffffffffffffffffffffffffff161415806101f05750600160008273ffffffffffffffffffffffffffffffffffffffff1673ffffffffffffffffffffffffffffffffffffffff16815260200190815260200160002060010160009054906101000a900460ff165b156101fa576102d5565b60018060008373ffffffffffffffffffffffffffffffffffffffff1673ffffffffffffffffffffffffffffffffffffffff168152602001908152602001600020600001819055506000600160008373ffffffffffffffffffffffffffffffffffffffff1673ffffffffffffffffffffffffffffffffffffffff16815260200190815260200160002060010160006101000a81548160ff021916908315150217905550600a600354014211156102d45760026000806101000a81548160ff021916908360038111156102c757fe5b0217905550426003819055505b5b50565b60006003808111156102e657fe5b6000809054906101000a900460ff16600381111561030057fe5b1461030e5760009050610382565b600080905060008090505b6002805490508160ff16101561037f578160028260ff168154811061033a57fe5b906000526020600020016000015411156103725760028160ff168154811061035e57fe5b906000526020600020016000015491508092505b8080600101915050610319565b50505b90565b6002600381111561039257fe5b6000809054906101000a900460ff1660038111156103ac57fe5b146103b6576104c5565b6000600160003373ffffffffffffffffffffffffffffffffffffffff1673ffffffffffffffffffffffffffffffffffffffff16815260200190815260200160002090508060010160009054906101000a900460ff168061041e57506002805490508260ff1610155b1561042957506104c5565b60018160010160006101000a81548160ff021916908315150217905550818160010160016101000a81548160ff021916908360ff160217905550806000015460028360ff168154811061047857fe5b9060005260206000200160000160008282540192505081905550600a600354014211156104c35760036000806101000a81548160ff021916908360038111156104bd57fe5b02179055505b505b50565b6000809054906101000a900460ff168156fea265627a7a72315820b46d06e540b95f4e1d1dc43332d2b611bfad4f5aa22a6ef5ffaa2a5f82e4af3464736f6c63430005100032",
  "source": "pragma solidity >=0.4.22 <0.9.0;\r\ncontract Ballot3 {\r\n\r\n    struct Voter {\r\n        uint weight;\r\n        bool voted;\r\n        uint8 vote;\r\n    }\r\n    struct Proposal {\r\n        uint voteCount;\r\n    }\r\n    enum Stage {Init,Reg, Vote, Done}\r\n    Stage public stage = Stage.Init;\r\n    \r\n    address chairperson;\r\n    mapping(address => Voter) voters;\r\n    Proposal[] proposals;\r\n\r\n    \r\n    uint startTime;   \r\n\r\n    /// Create a new ballot with $(_numProposals) different proposals.\r\n    constructor(uint8 _numProposals) public {\r\n        chairperson = msg.sender;\r\n        voters[chairperson].weight = 2; // weight is 2 for testing purposes\r\n        proposals.length = _numProposals;\r\n        stage = Stage.Reg;\r\n        startTime = now;\r\n    }\r\n\r\n    /// Give $(toVoter) the right to vote on this ballot.\r\n    /// May only be called by $(chairperson).\r\n    function register(address toVoter) public {\r\n        if (stage != Stage.Reg) {return;}\r\n        if (msg.sender != chairperson || voters[toVoter].voted) return;\r\n        voters[toVoter].weight = 1;\r\n        voters[toVoter].voted = false;\r\n        if (now > (startTime+ 10 seconds)) {stage = Stage.Vote; startTime = now;}        \r\n    }\r\n\r\n    /// Give a single vote to proposal $(toProposal).\r\n    function vote(uint8 toProposal) public  {\r\n        if (stage != Stage.Vote) {return;}\r\n        Voter storage sender = voters[msg.sender];\r\n        if (sender.voted || toProposal >= proposals.length) return;\r\n        sender.voted = true;\r\n        sender.vote = toProposal;   \r\n        proposals[toProposal].voteCount += sender.weight;\r\n        if (now > (startTime+ 10 seconds)) {stage = Stage.Done;}        \r\n        \r\n    }\r\n\r\n    function winningProposal() public view returns (uint8 _winningProposal) {\r\n       if(stage != Stage.Done) {return 0;}\r\n        uint256 winningVoteCount = 0;\r\n        for (uint8 prop = 0; prop < proposals.length; prop++)\r\n            if (proposals[prop].voteCount > winningVoteCount) {\r\n                winningVoteCount = proposals[prop].voteCount;\r\n                _winningProposal = prop;\r\n            }\r\n       \r\n    }\r\n}\r\n",
  "sourcePath": "/Users/ryanbehan/build/ethereum/coursera/ethereum-testing/course_2_code_downloaded/contracts/BallotWithStages.sol",
  "compiler": {
    "name": "solc",
    "version": "0.5.16+commit.9c3226ce.Emscripten.clang"
  },
  "schemaVersion": "3.4.2",
  "updatedAt": "2021-08-30T01:59:11.419Z",
  "devdoc": {
    "methods": {}
  },
  "userdoc": {
    "methods": {
      "constructor": "Create a new ballot with $(_numProposals) different proposals.",
      "register(address)": {
        "notice": "Give $(toVoter) the right to vote on this ballot. May only be called by $(chairperson)."
      },
      "vote(uint8)": {
        "notice": "Give a single vote to proposal $(toProposal)."
      }
    }
  }
}