{
  "contractName": "Bidder",
  "abi": [
    {
      "constant": true,
      "inputs": [],
      "name": "bidAmount",
      "outputs": [
        {
          "internalType": "uint256",
          "name": "",
          "type": "uint256"
        }
      ],
      "payable": false,
      "stateMutability": "view",
      "type": "function"
    },
    {
      "constant": true,
      "inputs": [],
      "name": "eligible",
      "outputs": [
        {
          "internalType": "bool",
          "name": "",
          "type": "bool"
        }
      ],
      "payable": false,
      "stateMutability": "view",
      "type": "function"
    },
    {
      "constant": true,
      "inputs": [],
      "name": "name",
      "outputs": [
        {
          "internalType": "string",
          "name": "",
          "type": "string"
        }
      ],
      "payable": false,
      "stateMutability": "view",
      "type": "function"
    }
  ],
  "bytecode": "0x6080604052614e2060015534801561001657600080fd5b506101f5806100266000396000f3fe608060405234801561001057600080fd5b50600436106100415760003560e01c806306fdde0314610046578063aec2393b146100c9578063d832d92f146100e7575b600080fd5b61004e610109565b6040518080602001828103825283818151815260200191508051906020019080838360005b8381101561008e578082015181840152602081019050610073565b50505050905090810190601f1680156100bb5780820380516001836020036101000a031916815260200191505b509250505060405180910390f35b6100d16101a7565b6040518082815260200191505060405180910390f35b6100ef6101ad565b604051808215151515815260200191505060405180910390f35b60008054600181600116156101000203166002900480601f01602080910402602001604051908101604052809291908181526020018280546001816001161561010002031660029004801561019f5780601f106101745761010080835404028352916020019161019f565b820191906000526020600020905b81548152906001019060200180831161018257829003601f168201915b505050505081565b60015481565b600260009054906101000a900460ff168156fea265627a7a7231582045835b14b65ad791b644c317c99753c95959e4a09476e927045a04b99193efba64736f6c63430005100032",
  "source": "pragma solidity >=0.4.22 <0.9.0; \r\n\r\ncontract Bidder {\r\n    \r\n     string public name;\r\n     uint public bidAmount = 20000;\r\n     bool public  eligible;\r\n     uint constant minBid = 1000;\r\n     \r\n     \r\n}",
  "sourcePath": "/Users/ryanbehan/build/ethereum/coursera/ethereum-testing/course_2_code_downloaded/contracts/BidderData.sol",
  "compiler": {
    "name": "solc",
    "version": "0.5.16+commit.9c3226ce.Emscripten.clang"
  },
  "schemaVersion": "3.4.2",
  "updatedAt": "2021-08-30T01:58:38.254Z",
  "devdoc": {
    "methods": {}
  },
  "userdoc": {
    "methods": {}
  }
}