{
  "contractName": "SimpleStorage",
  "abi": [
    {
      "constant": false,
      "inputs": [
        {
          "internalType": "uint256",
          "name": "x",
          "type": "uint256"
        }
      ],
      "name": "set",
      "outputs": [],
      "payable": false,
      "stateMutability": "nonpayable",
      "type": "function"
    },
    {
      "constant": true,
      "inputs": [],
      "name": "get",
      "outputs": [
        {
          "internalType": "uint256",
          "name": "",
          "type": "uint256"
        }
      ],
      "payable": false,
      "stateMutability": "view",
      "type": "function"
    },
    {
      "constant": false,
      "inputs": [
        {
          "internalType": "uint256",
          "name": "n",
          "type": "uint256"
        }
      ],
      "name": "increment",
      "outputs": [],
      "payable": false,
      "stateMutability": "nonpayable",
      "type": "function"
    },
    {
      "constant": false,
      "inputs": [
        {
          "internalType": "uint256",
          "name": "n",
          "type": "uint256"
        }
      ],
      "name": "decrement",
      "outputs": [],
      "payable": false,
      "stateMutability": "nonpayable",
      "type": "function"
    }
  ],
  "bytecode": "0x608060405234801561001057600080fd5b5061015d806100206000396000f3fe608060405234801561001057600080fd5b506004361061004c5760003560e01c80633a9ebefd1461005157806360fe47b11461007f5780636d4ce63c146100ad5780637cf5dab0146100cb575b600080fd5b61007d6004803603602081101561006757600080fd5b81019080803590602001909291905050506100f9565b005b6100ab6004803603602081101561009557600080fd5b8101908080359060200190929190505050610107565b005b6100b5610111565b6040518082815260200191505060405180910390f35b6100f7600480360360208110156100e157600080fd5b810190808035906020019092919050505061011a565b005b806000540360008190555050565b8060008190555050565b60008054905090565b80600054016000819055505056fea265627a7a72315820f5bc07b5a1c6edc17708d69a0e80b3c96fb8b014fba502962e464c1fc0870fa364736f6c63430005100032",
  "source": "pragma solidity >=0.4.22 <0.9.0; \r\n// Imagine a big integer that the whole world could share\r\ncontract SimpleStorage {\r\n    uint storedData;\r\n\r\n    function set(uint x) public {\r\n        storedData = x;\r\n    }\r\n\r\n    function get() view public returns (uint)  {\r\n        return storedData;\r\n    }\r\n    \r\n    function increment (uint n) public {\r\n        storedData = storedData + n;\r\n        return;\r\n    }\r\n    \r\n    function decrement (uint n) public {\r\n        storedData = storedData - n;\r\n        return;\r\n    }\r\n    \r\n}\r\n\r\n \r\n\r\n\r\n",
  "sourcePath": "/Users/ryanbehan/build/ethereum/coursera/ethereum-testing/course_2_code_downloaded/contracts/SimpleStorage.sol",
  "compiler": {
    "name": "solc",
    "version": "0.5.16+commit.9c3226ce.Emscripten.clang"
  },
  "schemaVersion": "3.4.2",
  "updatedAt": "2021-08-30T01:58:38.256Z",
  "devdoc": {
    "methods": {}
  },
  "userdoc": {
    "methods": {}
  }
}